{
  "address": "0xD539c36fA3200CD75a81aECB31fDb7d1D85a5d07",
  "abi": [
    {
      "inputs": [
        {
          "internalType": "address[]",
          "name": "owners_",
          "type": "address[]"
        },
        {
          "internalType": "uint8",
          "name": "quorum_",
          "type": "uint8"
        },
        {
          "internalType": "uint128",
          "name": "ttl_",
          "type": "uint128"
        }
      ],
      "stateMutability": "nonpayable",
      "type": "constructor"
    },
    {
      "anonymous": false,
      "inputs": [
        {
          "indexed": true,
          "internalType": "address",
          "name": "sender",
          "type": "address"
        },
        {
          "indexed": true,
          "internalType": "uint256",
          "name": "txId",
          "type": "uint256"
        }
      ],
      "name": "Confirmation",
      "type": "event"
    },
    {
      "anonymous": false,
      "inputs": [
        {
          "indexed": true,
          "internalType": "uint256",
          "name": "txId",
          "type": "uint256"
        }
      ],
      "name": "Execution",
      "type": "event"
    },
    {
      "anonymous": false,
      "inputs": [
        {
          "indexed": true,
          "internalType": "address",
          "name": "owner",
          "type": "address"
        }
      ],
      "name": "OwnerAddition",
      "type": "event"
    },
    {
      "anonymous": false,
      "inputs": [
        {
          "indexed": true,
          "internalType": "address",
          "name": "owner",
          "type": "address"
        }
      ],
      "name": "OwnerRemoval",
      "type": "event"
    },
    {
      "anonymous": false,
      "inputs": [
        {
          "indexed": false,
          "internalType": "uint8",
          "name": "quorum",
          "type": "uint8"
        }
      ],
      "name": "QuorumChange",
      "type": "event"
    },
    {
      "anonymous": false,
      "inputs": [
        {
          "indexed": true,
          "internalType": "address",
          "name": "sender",
          "type": "address"
        },
        {
          "indexed": true,
          "internalType": "uint256",
          "name": "txId",
          "type": "uint256"
        }
      ],
      "name": "Revocation",
      "type": "event"
    },
    {
      "anonymous": false,
      "inputs": [
        {
          "indexed": true,
          "internalType": "uint256",
          "name": "txId",
          "type": "uint256"
        }
      ],
      "name": "Submission",
      "type": "event"
    },
    {
      "inputs": [
        {
          "internalType": "address",
          "name": "owner_",
          "type": "address"
        }
      ],
      "name": "addOwner",
      "outputs": [],
      "stateMutability": "nonpayable",
      "type": "function"
    },
    {
      "inputs": [
        {
          "internalType": "uint256",
          "name": "txId_",
          "type": "uint256"
        }
      ],
      "name": "confirmTransaction",
      "outputs": [],
      "stateMutability": "nonpayable",
      "type": "function"
    },
    {
      "inputs": [
        {
          "internalType": "uint256",
          "name": "",
          "type": "uint256"
        },
        {
          "internalType": "address",
          "name": "",
          "type": "address"
        }
      ],
      "name": "confirms",
      "outputs": [
        {
          "internalType": "bool",
          "name": "",
          "type": "bool"
        }
      ],
      "stateMutability": "view",
      "type": "function"
    },
    {
      "inputs": [
        {
          "internalType": "uint256",
          "name": "txId_",
          "type": "uint256"
        }
      ],
      "name": "executeTransaction",
      "outputs": [],
      "stateMutability": "nonpayable",
      "type": "function"
    },
    {
      "inputs": [
        {
          "internalType": "uint256",
          "name": "txId_",
          "type": "uint256"
        }
      ],
      "name": "getConfirmations",
      "outputs": [
        {
          "internalType": "address[]",
          "name": "confirms_",
          "type": "address[]"
        }
      ],
      "stateMutability": "view",
      "type": "function"
    },
    {
      "inputs": [
        {
          "internalType": "uint256",
          "name": "txId_",
          "type": "uint256"
        }
      ],
      "name": "getConfirmationsCount",
      "outputs": [
        {
          "internalType": "uint8",
          "name": "count",
          "type": "uint8"
        }
      ],
      "stateMutability": "view",
      "type": "function"
    },
    {
      "inputs": [
        {
          "internalType": "uint256",
          "name": "txId_",
          "type": "uint256"
        }
      ],
      "name": "isConfirmed",
      "outputs": [
        {
          "internalType": "bool",
          "name": "",
          "type": "bool"
        }
      ],
      "stateMutability": "view",
      "type": "function"
    },
    {
      "inputs": [
        {
          "internalType": "address",
          "name": "",
          "type": "address"
        }
      ],
      "name": "isOwner",
      "outputs": [
        {
          "internalType": "bool",
          "name": "",
          "type": "bool"
        }
      ],
      "stateMutability": "view",
      "type": "function"
    },
    {
      "inputs": [
        {
          "internalType": "uint256",
          "name": "",
          "type": "uint256"
        }
      ],
      "name": "owners",
      "outputs": [
        {
          "internalType": "address",
          "name": "",
          "type": "address"
        }
      ],
      "stateMutability": "view",
      "type": "function"
    },
    {
      "inputs": [],
      "name": "quorum",
      "outputs": [
        {
          "internalType": "uint8",
          "name": "",
          "type": "uint8"
        }
      ],
      "stateMutability": "view",
      "type": "function"
    },
    {
      "inputs": [
        {
          "internalType": "address",
          "name": "owner_",
          "type": "address"
        }
      ],
      "name": "removeOwner",
      "outputs": [],
      "stateMutability": "nonpayable",
      "type": "function"
    },
    {
      "inputs": [
        {
          "internalType": "uint256",
          "name": "txId_",
          "type": "uint256"
        }
      ],
      "name": "revokeConfirmation",
      "outputs": [],
      "stateMutability": "nonpayable",
      "type": "function"
    },
    {
      "inputs": [
        {
          "internalType": "uint8",
          "name": "quorum_",
          "type": "uint8"
        }
      ],
      "name": "setQuorum",
      "outputs": [],
      "stateMutability": "nonpayable",
      "type": "function"
    },
    {
      "inputs": [
        {
          "internalType": "address",
          "name": "dst_",
          "type": "address"
        },
        {
          "internalType": "uint256",
          "name": "value_",
          "type": "uint256"
        },
        {
          "internalType": "bytes",
          "name": "calldata_",
          "type": "bytes"
        }
      ],
      "name": "submitTransaction",
      "outputs": [
        {
          "internalType": "uint256",
          "name": "txId",
          "type": "uint256"
        }
      ],
      "stateMutability": "nonpayable",
      "type": "function"
    },
    {
      "inputs": [],
      "name": "ttl",
      "outputs": [
        {
          "internalType": "uint128",
          "name": "",
          "type": "uint128"
        }
      ],
      "stateMutability": "view",
      "type": "function"
    },
    {
      "inputs": [
        {
          "internalType": "uint256",
          "name": "",
          "type": "uint256"
        }
      ],
      "name": "txs",
      "outputs": [
        {
          "internalType": "address",
          "name": "dst",
          "type": "address"
        },
        {
          "internalType": "uint256",
          "name": "value",
          "type": "uint256"
        },
        {
          "internalType": "bytes",
          "name": "data",
          "type": "bytes"
        },
        {
          "internalType": "bool",
          "name": "isExecuted",
          "type": "bool"
        },
        {
          "internalType": "uint256",
          "name": "blockNumber",
          "type": "uint256"
        }
      ],
      "stateMutability": "view",
      "type": "function"
    },
    {
      "inputs": [],
      "name": "txsCount",
      "outputs": [
        {
          "internalType": "uint256",
          "name": "",
          "type": "uint256"
        }
      ],
      "stateMutability": "view",
      "type": "function"
    },
    {
      "stateMutability": "payable",
      "type": "receive"
    }
  ],
  "transactionHash": "0x52c2d096c4a2ea8becbf2e3f61c2b7a48170d37d4a74ffc2e2c1dcb66929a6a1",
  "args": [
    [
      "0x20D1e919B0d5D7A3a24159559202359C1E130495",
      "0x6DF7F61fE3f8A034BCadF58A9Cb998f828fAdf7F",
      "0xBCDb8BC5D4E8FEbe014999Ee7Ec32fb03C60b6Ce",
      "0x66a42E8Db672bbC1573be0B3Ea8f6FD48d4d7A4e",
      "0x36e4e7C398d65879da35a10aE2b82db53dE50251"
    ],
    2,
    40320
  ],
  "numDeployments": 1,
  "solcInputHash": "e6374f2184d41153b1ffcf48da50d1f1",
  "bytecode": "0x60806040523480156200001157600080fd5b5060405162001b0d38038062001b0d8339810160408190526200003491620002e4565b8251828160ff168160ff161115801562000050575060ff811615155b80156200005f575060ff821615155b620000a25760405162461bcd60e51b815260206004820152600e60248201526d696e76616c69642071756f72756d60901b60448201526064015b60405180910390fd5b60005b85518160ff161015620001cc576000868260ff1681518110620000cc57620000cc62000412565b6020026020010151905060006001600160a01b0316816001600160a01b031614156200012a5760405162461bcd60e51b815260206004820152600c60248201526b7a65726f206164647265737360a01b604482015260640162000099565b6001600160a01b03811660009081526004602052604090205460ff1615620001955760405162461bcd60e51b815260206004820152601360248201527f6f776e6572206973206475706c69636174656400000000000000000000000000604482015260640162000099565b6001600160a01b03166000908152600460205260409020805460ff1916600117905580620001c381620003e3565b915050620000a5565b508451620001e29060059060208801906200021c565b5050600080546001600160801b03909316610100026001600160881b031990931660ff9094169390931791909117909155506200043e9050565b82805482825590600052602060002090810192821562000274579160200282015b828111156200027457825182546001600160a01b0319166001600160a01b039091161782556020909201916001909101906200023d565b506200028292915062000286565b5090565b5b8082111562000282576000815560010162000287565b80516001600160a01b0381168114620002b557600080fd5b919050565b80516001600160801b0381168114620002b557600080fd5b805160ff81168114620002b557600080fd5b600080600060608486031215620002fa57600080fd5b83516001600160401b03808211156200031257600080fd5b818601915086601f8301126200032757600080fd5b81516020828211156200033e576200033e62000428565b8160051b604051601f19603f8301168101818110868211171562000366576200036662000428565b604052838152828101945085830182870184018c10156200038657600080fd5b600096505b84871015620003b4576200039f816200029d565b8652600196909601959483019483016200038b565b509750620003c69050888201620002d2565b955050505050620003da60408501620002ba565b90509250925092565b600060ff821660ff8114156200040957634e487b7160e01b600052601160045260246000fd5b60010192915050565b634e487b7160e01b600052603260045260246000fd5b634e487b7160e01b600052604160045260246000fd5b6116bf806200044e6000396000f3fe6080604052600436106101025760003560e01c80636dcab78f11610095578063bce800e511610064578063bce800e514610322578063c01a8c8414610342578063c642747414610362578063ee22610b14610382578063f5715d56146103a257600080fd5b80636dcab78f146102955780637065cb48146102b5578063784547a7146102d5578063b5dc40c3146102f557600080fd5b80632f54bf6e116100d15780632f54bf6e146101b95780634e8b1dd5146101f9578063546f4030146102365780635ee05c3d1461027157600080fd5b8063025e7c271461010e5780631703a0181461014b578063173825d91461017757806320ea8d861461019957600080fd5b3661010957005b600080fd5b34801561011a57600080fd5b5061012e610129366004611392565b6103d3565b6040516001600160a01b0390911681526020015b60405180910390f35b34801561015757600080fd5b506000546101659060ff1681565b60405160ff9091168152602001610142565b34801561018357600080fd5b506101976101923660046112e9565b6103fd565b005b3480156101a557600080fd5b506101976101b4366004611392565b6105f1565b3480156101c557600080fd5b506101e96101d43660046112e9565b60046020526000908152604090205460ff1681565b6040519015158152602001610142565b34801561020557600080fd5b5060005461021e9061010090046001600160801b031681565b6040516001600160801b039091168152602001610142565b34801561024257600080fd5b506101e96102513660046113ab565b600360209081526000928352604080842090915290825290205460ff1681565b34801561027d57600080fd5b5061028760025481565b604051908152602001610142565b3480156102a157600080fd5b506101976102b03660046113d7565b610721565b3480156102c157600080fd5b506101976102d03660046112e9565b6107f1565b3480156102e157600080fd5b506101e96102f0366004611392565b6109b2565b34801561030157600080fd5b50610315610310366004611392565b610a5d565b6040516101429190611519565b34801561032e57600080fd5b5061016561033d366004611392565b610c1c565b34801561034e57600080fd5b5061019761035d366004611392565b610ca8565b34801561036e57600080fd5b5061028761037d36600461130b565b610de0565b34801561038e57600080fd5b5061019761039d366004611392565b610f77565b3480156103ae57600080fd5b506103c26103bd366004611392565b61116c565b604051610142959493929190611496565b600581815481106103e357600080fd5b6000918252602090912001546001600160a01b0316905081565b3330146104255760405162461bcd60e51b815260040161041c90611566565b60405180910390fd5b6001600160a01b038116600090815260046020526040902054819060ff1661045f5760405162461bcd60e51b815260040161041c90611589565b6001600160a01b0382166000908152600460205260408120805460ff191690555b60055461048f906001906115c5565b8160ff16101561056857826001600160a01b031660058260ff16815481106104b9576104b961165d565b6000918252602090912001546001600160a01b0316141561055657600580546104e4906001906115c5565b815481106104f4576104f461165d565b600091825260209091200154600580546001600160a01b039092169160ff84169081106105235761052361165d565b9060005260206000200160006101000a8154816001600160a01b0302191690836001600160a01b03160217905550610568565b8061056081611611565b915050610480565b50600580548061057a5761057a611647565b600082815260208120820160001990810180546001600160a01b0319169055909101909155600554905460ff1611156105b9576005546105b990610721565b6040516001600160a01b038316907f8001553a916ef2f495d26a907cc54d96ed840d7bda71e73194bf5a9df7a76b9090600090a25050565b3360008181526004602052604090205460ff166106205760405162461bcd60e51b815260040161041c90611589565b600082815260016020526040902060030154829060ff16156106755760405162461bcd60e51b815260206004820152600e60248201526d1d1e081a5cc8195e1958dd5d195960921b604482015260640161041c565b600083815260036020908152604080832033845290915290205460ff166106d45760405162461bcd60e51b81526020600482015260136024820152721d1e081a5cc81b9bdd0818dbdb999a5c9b5959606a1b604482015260640161041c565b6000838152600360209081526040808320338085529252808320805460ff191690555185927ff6a317157440607f36269043eb55f1287a5a19ba2216afeab88cd46cbcfb88e991a3505050565b3330146107405760405162461bcd60e51b815260040161041c90611566565b6005548160ff8083169082161180159061075c575060ff811615155b801561076a575060ff821615155b6107a75760405162461bcd60e51b815260206004820152600e60248201526d696e76616c69642071756f72756d60901b604482015260640161041c565b6000805460ff191660ff85169081179091556040519081527ffa603a907b84a67fa467c412d67e151527b4490bd0f5b8234a6d04a8aa7035099060200160405180910390a1505050565b3330146108105760405162461bcd60e51b815260040161041c90611566565b60055461081e9060016115ad565b60005460ff908116908216811180159061083a575060ff811615155b8015610848575060ff821615155b6108855760405162461bcd60e51b815260206004820152600e60248201526d696e76616c69642071756f72756d60901b604482015260640161041c565b6001600160a01b0383166108ca5760405162461bcd60e51b815260206004820152600c60248201526b7a65726f206164647265737360a01b604482015260640161041c565b6001600160a01b03831660009081526004602052604090205460ff16156109245760405162461bcd60e51b815260206004820152600e60248201526d37b7363c903737ba1037bbb732b960911b604482015260640161041c565b6001600160a01b038316600081815260046020526040808220805460ff1916600190811790915560058054918201815583527f036b6384b5eca791c62761152d0c79bb0604c104a5fb6f4eb0703f3154bb3db00180546001600160a01b03191684179055517ff39e6e1eb0edcf53c221607b54b00cd28f3196fed0a24994dc308b8f611b682d9190a2505050565b600080805b60055460ff82161015610a535760008481526003602052604081206005805491929160ff85169081106109ec576109ec61165d565b60009182526020808320909101546001600160a01b0316835282019290925260400190205460ff1615610a275781610a2381611611565b9250505b60005460ff83811691161415610a41575060019392505050565b80610a4b81611611565b9150506109b7565b5060009392505050565b6060600080600060058054905067ffffffffffffffff811115610a8257610a82611673565b604051908082528060200260200182016040528015610aab578160200160208202803683370190505b5090505b60055460ff84161015610b5d57600060058460ff1681548110610ad457610ad461165d565b60009182526020808320909101548883526003825260408084206001600160a01b039092168085529190925291205490915060ff1615610b4a5780828460ff1681518110610b2457610b2461165d565b6001600160a01b039092166020928302919091019091015282610b4681611611565b9350505b5082610b5581611611565b935050610aaf565b8160ff1667ffffffffffffffff811115610b7957610b79611673565b604051908082528060200260200182016040528015610ba2578160200160208202803683370190505b509350600092505b8160ff168360ff161015610c1457808360ff1681518110610bcd57610bcd61165d565b6020026020010151848460ff1681518110610bea57610bea61165d565b6001600160a01b039092166020928302919091019091015282610c0c81611611565b935050610baa565b505050919050565b6000805b60055460ff82161015610ca25760008381526003602052604081206005805491929160ff8516908110610c5557610c5561165d565b60009182526020808320909101546001600160a01b0316835282019290925260400190205460ff1615610c905781610c8c81611611565b9250505b80610c9a81611611565b915050610c20565b50919050565b3360008181526004602052604090205460ff16610cd75760405162461bcd60e51b815260040161041c90611589565b60008281526003602090815260408083203380855292529091205483919060ff1615610d375760405162461bcd60e51b815260206004820152600f60248201526e1d1e081a5cc818dbdb999a5c9b5959608a1b604482015260640161041c565b6000848152600160205260409020546001600160a01b0316610d8f5760405162461bcd60e51b81526020600482015260116024820152701d1e1259081a5cc81a5b98dbdc9c9958dd607a1b604482015260640161041c565b6000848152600360209081526040808320338085529252808320805460ff191660011790555186927f4a504a94899432a9846e1aa406dceb1bcfd538bb839071d49d1e5e23f5be30ef91a350505050565b3360008181526004602052604081205490919060ff16610e125760405162461bcd60e51b815260040161041c90611589565b6001600160a01b038616610e575760405162461bcd60e51b815260206004820152600c60248201526b7a65726f206164647265737360a01b604482015260640161041c565b60025491506040518060a00160405280876001600160a01b0316815260200186815260200185858080601f0160208091040260200160405190810160405280939291908181526020018383808284376000920182905250938552505050602080830182905243604093840152858252600180825291839020845181546001600160a01b0319166001600160a01b0390911617815584820151928101929092559183015180519192610f1092600285019290910190611234565b50606082015160038201805460ff1916911515919091179055608090910151600490910155610f408260016115ad565b60025560405182907fc0ba8fe4b176c1714197d43b9cc6bcf797a4a7461c5fe8d0ef6e184ae7601e5190600090a250949350505050565b600081815260016020526040902060030154819060ff1615610fcc5760405162461bcd60e51b815260206004820152600e60248201526d1d1e081a5cc8195e1958dd5d195960921b604482015260640161041c565b610fd5826109b2565b6110145760405162461bcd60e51b815260206004820152601060248201526f1a5cc81b9bdd0818dbdb999a5c9b595960821b604482015260640161041c565b6000828152600160205260408120905460048201544391611044916101009091046001600160801b0316906115ad565b101561107f5760405162461bcd60e51b815260206004820152600a6024820152691d1e081d1bdbc81bdb1960b21b604482015260640161041c565b60038101805460ff1916600117905560405183907f33e13ecb54c3076d8e8bb8c2881800a4d972b792045ffae98fdf46df365fed7590600090a2805460018201546040516000926001600160a01b031691906110df9060028601906113fa565b60006040518083038185875af1925050503d806000811461111c576040519150601f19603f3d011682016040523d82523d6000602084013e611121565b606091505b50509050806111665760405162461bcd60e51b8152602060048201526011602482015270657865637574696f6e206661696c75726560781b604482015260640161041c565b50505050565b60016020819052600091825260409091208054918101546002820180546001600160a01b03909416939192916111a1906115dc565b80601f01602080910402602001604051908101604052809291908181526020018280546111cd906115dc565b801561121a5780601f106111ef5761010080835404028352916020019161121a565b820191906000526020600020905b8154815290600101906020018083116111fd57829003601f168201915b505050506003830154600490930154919260ff1691905085565b828054611240906115dc565b90600052602060002090601f01602090048101928261126257600085556112a8565b82601f1061127b57805160ff19168380011785556112a8565b828001600101855582156112a8579182015b828111156112a857825182559160200191906001019061128d565b506112b49291506112b8565b5090565b5b808211156112b457600081556001016112b9565b80356001600160a01b03811681146112e457600080fd5b919050565b6000602082840312156112fb57600080fd5b611304826112cd565b9392505050565b6000806000806060858703121561132157600080fd5b61132a856112cd565b935060208501359250604085013567ffffffffffffffff8082111561134e57600080fd5b818701915087601f83011261136257600080fd5b81358181111561137157600080fd5b88602082850101111561138357600080fd5b95989497505060200194505050565b6000602082840312156113a457600080fd5b5035919050565b600080604083850312156113be57600080fd5b823591506113ce602084016112cd565b90509250929050565b6000602082840312156113e957600080fd5b813560ff8116811461130457600080fd5b600080835481600182811c91508083168061141657607f831692505b602080841082141561143657634e487b7160e01b86526022600452602486fd5b81801561144a576001811461145b57611488565b60ff19861689528489019650611488565b60008a81526020902060005b868110156114805781548b820152908501908301611467565b505084890196505b509498975050505050505050565b60018060a01b038616815260006020868184015260a0604084015285518060a085015260005b818110156114d85787810183015185820160c0015282016114bc565b818111156114ea57600060c083870101525b50601f01601f1916830160c00191506115099050606083018515159052565b8260808301529695505050505050565b6020808252825182820181905260009190848201906040850190845b8181101561155a5783516001600160a01b031683529284019291840191600101611535565b50909695505050505050565b60208082526009908201526837b7363c9039b2b63360b91b604082015260600190565b6020808252600a908201526937b7363c9037bbb732b960b11b604082015260600190565b600082198211156115c0576115c0611631565b500190565b6000828210156115d7576115d7611631565b500390565b600181811c908216806115f057607f821691505b60208210811415610ca257634e487b7160e01b600052602260045260246000fd5b600060ff821660ff81141561162857611628611631565b60010192915050565b634e487b7160e01b600052601160045260246000fd5b634e487b7160e01b600052603160045260246000fd5b634e487b7160e01b600052603260045260246000fd5b634e487b7160e01b600052604160045260246000fdfea26469706673582212200a7728fd27989f5275b2a65c5d85c7f71530660925a797fac3fb62d51ce3d74b64736f6c63430008070033",
  "devdoc": {
    "kind": "dev",
    "methods": {},
    "version": 1
  },
  "userdoc": {
    "kind": "user",
    "methods": {},
    "version": 1
  },
  "storageLayout": {
    "storage": [
      {
        "astId": 14,
        "contract": "contracts/Multisig.sol:Multisig",
        "label": "quorum",
        "offset": 0,
        "slot": "0",
        "type": "t_uint8"
      },
      {
        "astId": 16,
        "contract": "contracts/Multisig.sol:Multisig",
        "label": "ttl",
        "offset": 1,
        "slot": "0",
        "type": "t_uint128"
      },
      {
        "astId": 21,
        "contract": "contracts/Multisig.sol:Multisig",
        "label": "txs",
        "offset": 0,
        "slot": "1",
        "type": "t_mapping(t_uint256,t_struct(Transaction)12_storage)"
      },
      {
        "astId": 23,
        "contract": "contracts/Multisig.sol:Multisig",
        "label": "txsCount",
        "offset": 0,
        "slot": "2",
        "type": "t_uint256"
      },
      {
        "astId": 29,
        "contract": "contracts/Multisig.sol:Multisig",
        "label": "confirms",
        "offset": 0,
        "slot": "3",
        "type": "t_mapping(t_uint256,t_mapping(t_address,t_bool))"
      },
      {
        "astId": 33,
        "contract": "contracts/Multisig.sol:Multisig",
        "label": "isOwner",
        "offset": 0,
        "slot": "4",
        "type": "t_mapping(t_address,t_bool)"
      },
      {
        "astId": 36,
        "contract": "contracts/Multisig.sol:Multisig",
        "label": "owners",
        "offset": 0,
        "slot": "5",
        "type": "t_array(t_address)dyn_storage"
      }
    ],
    "types": {
      "t_address": {
        "encoding": "inplace",
        "label": "address",
        "numberOfBytes": "20"
      },
      "t_array(t_address)dyn_storage": {
        "base": "t_address",
        "encoding": "dynamic_array",
        "label": "address[]",
        "numberOfBytes": "32"
      },
      "t_bool": {
        "encoding": "inplace",
        "label": "bool",
        "numberOfBytes": "1"
      },
      "t_bytes_storage": {
        "encoding": "bytes",
        "label": "bytes",
        "numberOfBytes": "32"
      },
      "t_mapping(t_address,t_bool)": {
        "encoding": "mapping",
        "key": "t_address",
        "label": "mapping(address => bool)",
        "numberOfBytes": "32",
        "value": "t_bool"
      },
      "t_mapping(t_uint256,t_mapping(t_address,t_bool))": {
        "encoding": "mapping",
        "key": "t_uint256",
        "label": "mapping(uint256 => mapping(address => bool))",
        "numberOfBytes": "32",
        "value": "t_mapping(t_address,t_bool)"
      },
      "t_mapping(t_uint256,t_struct(Transaction)12_storage)": {
        "encoding": "mapping",
        "key": "t_uint256",
        "label": "mapping(uint256 => struct Multisig.Transaction)",
        "numberOfBytes": "32",
        "value": "t_struct(Transaction)12_storage"
      },
      "t_struct(Transaction)12_storage": {
        "encoding": "inplace",
        "label": "struct Multisig.Transaction",
        "members": [
          {
            "astId": 3,
            "contract": "contracts/Multisig.sol:Multisig",
            "label": "dst",
            "offset": 0,
            "slot": "0",
            "type": "t_address"
          },
          {
            "astId": 5,
            "contract": "contracts/Multisig.sol:Multisig",
            "label": "value",
            "offset": 0,
            "slot": "1",
            "type": "t_uint256"
          },
          {
            "astId": 7,
            "contract": "contracts/Multisig.sol:Multisig",
            "label": "data",
            "offset": 0,
            "slot": "2",
            "type": "t_bytes_storage"
          },
          {
            "astId": 9,
            "contract": "contracts/Multisig.sol:Multisig",
            "label": "isExecuted",
            "offset": 0,
            "slot": "3",
            "type": "t_bool"
          },
          {
            "astId": 11,
            "contract": "contracts/Multisig.sol:Multisig",
            "label": "blockNumber",
            "offset": 0,
            "slot": "4",
            "type": "t_uint256"
          }
        ],
        "numberOfBytes": "160"
      },
      "t_uint128": {
        "encoding": "inplace",
        "label": "uint128",
        "numberOfBytes": "16"
      },
      "t_uint256": {
        "encoding": "inplace",
        "label": "uint256",
        "numberOfBytes": "32"
      },
      "t_uint8": {
        "encoding": "inplace",
        "label": "uint8",
        "numberOfBytes": "1"
      }
    }
  }
}